{
  "contractName": "Story",
  "abi": [
    {
      "constant": true,
      "inputs": [
        {
          "name": "",
          "type": "uint256"
        }
      ],
      "name": "arrayOfLines",
      "outputs": [
        {
          "name": "line",
          "type": "string"
        },
        {
          "name": "voteCount",
          "type": "uint256"
        }
      ],
      "payable": false,
      "stateMutability": "view",
      "type": "function"
    },
    {
      "inputs": [],
      "payable": false,
      "stateMutability": "nonpayable",
      "type": "constructor"
    },
    {
      "constant": false,
      "inputs": [
        {
          "name": "idx",
          "type": "uint256"
        }
      ],
      "name": "casteVote",
      "outputs": [],
      "payable": false,
      "stateMutability": "nonpayable",
      "type": "function"
    },
    {
      "constant": false,
      "inputs": [],
      "name": "addStoryLine",
      "outputs": [],
      "payable": false,
      "stateMutability": "nonpayable",
      "type": "function"
    },
    {
      "constant": false,
      "inputs": [],
      "name": "showStory",
      "outputs": [],
      "payable": false,
      "stateMutability": "nonpayable",
      "type": "function"
    }
  ],
  "bytecode": "0x60806040526000607a5534801561001557600080fd5b506040805190810160405280600681526020017f4c696e6520300000000000000000000000000000000000000000000000000000815250600080600b8110151561005b57fe5b60020201600001908051906020019061007592919061028b565b506000806000600b8110151561008757fe5b60020201600101819055506040805190810160405280600681526020017f4c696e652031000000000000000000000000000000000000000000000000000081525060006001600b811015156100d857fe5b6002020160000190805190602001906100f292919061028b565b506000806001600b8110151561010457fe5b60020201600101819055506040805190810160405280600681526020017f4c696e652032000000000000000000000000000000000000000000000000000081525060006002600b8110151561015557fe5b60020201600001908051906020019061016f92919061028b565b506000806002600b8110151561018157fe5b60020201600101819055506040805190810160405280600681526020017f4c696e652033000000000000000000000000000000000000000000000000000081525060006003600b811015156101d257fe5b6002020160000190805190602001906101ec92919061028b565b506000806003600b811015156101fe57fe5b60020201600101819055506040805190810160405280600681526020017f4c696e652034000000000000000000000000000000000000000000000000000081525060006004600b8110151561024f57fe5b60020201600001908051906020019061026992919061028b565b506000806004600b8110151561027b57fe5b6002020160010181905550610330565b828054600181600116156101000203166002900490600052602060002090601f016020900481019282601f106102cc57805160ff19168380011785556102fa565b828001600101855582156102fa579182015b828111156102f95782518255916020019190600101906102de565b5b509050610307919061030b565b5090565b61032d91905b80821115610329576000816000905550600101610311565b5090565b90565b6104158061033f6000396000f300608060405260043610610062576000357c0100000000000000000000000000000000000000000000000000000000900463ffffffff1680632080504814610067578063685940f81461007e578063d4b9c3c2146100ab578063fb68721614610158575b600080fd5b34801561007357600080fd5b5061007c61016f565b005b34801561008a57600080fd5b506100a96004803603810190808035906020019092919050505061019c565b005b3480156100b757600080fd5b506100d6600480360381019080803590602001909291905050506101c4565b6040518080602001838152602001828103825284818151815260200191508051906020019080838360005b8381101561011c578082015181840152602081019050610101565b50505050905090810190601f1680156101495780820380516001836020036101000a031916815260200191505b50935050505060405180910390f35b34801561016457600080fd5b5061016d610285565b005b6000600a607a54101561019957600090505b607a54811015610198578080600101915050610181565b5b50565b6001600082600b811015156101ad57fe5b600202016001016000828254019250508190555050565b600081600b811015156101d357fe5b60020201600091509050806000018054600181600116156101000203166002900480601f0160208091040260200160405190810160405280929190818152602001828054600181600116156101000203166002900480156102755780601f1061024a57610100808354040283529160200191610275565b820191906000526020600020905b81548152906001019060200180831161025857829003601f168201915b5050505050908060010154905082565b60008060009150600090505b60058110156102df57600082600b811015156102a957fe5b6002020160010154600082600b811015156102c057fe5b600202016001015411156102d2578091505b8080600101915050610291565b600082600b811015156102ee57fe5b600202016000016016607a5460648110151561030657fe5b01908054600181600116156101000203166002900461032692919061033d565b50607a600081548092919060010191905055505050565b828054600181600116156101000203166002900490600052602060002090601f016020900481019282601f1061037657805485556103b3565b828001600101855582156103b357600052602060002091601f016020900482015b828111156103b2578254825591600101919060010190610397565b5b5090506103c091906103c4565b5090565b6103e691905b808211156103e25760008160009055506001016103ca565b5090565b905600a165627a7a723058202fa589bf84b92dbb128b2e38cb0cee45852980753968d162728399b8c6f03a960029",
  "source": "pragma solidity ^0.4.2;\n\ncontract Story {\n    \n\n \t\n     \n    struct storyLine\n    {\n        string line;\n        uint voteCount;\n    }\n\n    storyLine[11] public arrayOfLines; // keep track of status of lines in each round\n    string[100] finalStory;     // final lines in story\n    uint lineCount = 0;         // final story line count\n\n    mapping( address => uint) votedInThisRound;\n\n \n\n    // Constructor\n    constructor() public\n    {\n        \n        arrayOfLines[0].line = \"Line 0\"; arrayOfLines[0].voteCount = 0;\n        arrayOfLines[1].line = \"Line 1\"; arrayOfLines[1].voteCount = 0; \n        arrayOfLines[2].line = \"Line 2\"; arrayOfLines[2].voteCount = 0;\n        arrayOfLines[3].line = \"Line 3\"; arrayOfLines[3].voteCount = 0;\n        arrayOfLines[4].line = \"Line 4\"; arrayOfLines[4].voteCount = 0;\n    }\n\n    modifier notVoted()\n    {\n        require( votedInThisRound[msg.sender]<1 , \" Already proposed line \");_;\n    }\n\n\n    function casteVote(uint idx) public\n    {\n        //votedInThisRound[msg.sender] = 1;\n\n        arrayOfLines[idx].voteCount += 1;        \t\n        \n    }\n\n    function addStoryLine()\n    {\n\n        uint roundPropose  = 0;\n        for (uint i =0;i<5;i++)\n        {\n            if(arrayOfLines[i].voteCount > arrayOfLines[roundPropose].voteCount)\n            {\n                roundPropose = i;\n            }\n        }\n        finalStory[lineCount] = arrayOfLines[roundPropose].line;\n        lineCount ++;\n\n    }\n\n    \n    function showStory() public\n    {\n\n        if (lineCount < 10)\n        {\n            for (uint i =0;i<lineCount ;i++)\n            {\n                \n            }\n        }\n    }\n\n}\n",
  "sourcePath": "/home/harshit/Documents/Dapp/StoryDapp/contracts/Story.sol",
  "compiler": {
    "name": "solc",
    "version": "0.4.24+commit.e67f0147.Emscripten.clang"
  },
  "schemaVersion": "2.0.1",
  "updatedAt": "2018-11-10T08:09:44.342Z"
}