{
  "contractName": "Story",
  "abi": [
    {
      "constant": true,
      "inputs": [],
      "name": "lineselected",
      "outputs": [
        {
          "name": "",
          "type": "string"
        }
      ],
      "payable": false,
      "stateMutability": "view",
      "type": "function"
    },
    {
      "constant": true,
      "inputs": [
        {
          "name": "",
          "type": "uint256"
        }
      ],
      "name": "finalStory",
      "outputs": [
        {
          "name": "",
          "type": "string"
        }
      ],
      "payable": false,
      "stateMutability": "view",
      "type": "function"
    },
    {
      "constant": true,
      "inputs": [
        {
          "name": "",
          "type": "uint256"
        }
      ],
      "name": "arrayOfLines",
      "outputs": [
        {
          "name": "line",
          "type": "string"
        },
        {
          "name": "voteCount",
          "type": "uint256"
        }
      ],
      "payable": false,
      "stateMutability": "view",
      "type": "function"
    },
    {
      "constant": true,
      "inputs": [],
      "name": "lineCount",
      "outputs": [
        {
          "name": "",
          "type": "uint256"
        }
      ],
      "payable": false,
      "stateMutability": "view",
      "type": "function"
    },
    {
      "inputs": [],
      "payable": false,
      "stateMutability": "nonpayable",
      "type": "constructor"
    },
    {
      "constant": false,
      "inputs": [
        {
          "name": "idx",
          "type": "uint256"
        }
      ],
      "name": "casteVote",
      "outputs": [],
      "payable": false,
      "stateMutability": "nonpayable",
      "type": "function"
    },
    {
      "constant": false,
      "inputs": [],
      "name": "addStoryLine",
      "outputs": [],
      "payable": false,
      "stateMutability": "nonpayable",
      "type": "function"
    }
  ],
  "bytecode": "0x60806040526000607a5534801561001557600080fd5b506040805190810160405280600781526020017f4c696e6520302000000000000000000000000000000000000000000000000000815250600080600b8110151561005b57fe5b60020201600001908051906020019061007592919061028b565b506000806000600b8110151561008757fe5b60020201600101819055506040805190810160405280600781526020017f4c696e652031200000000000000000000000000000000000000000000000000081525060006001600b811015156100d857fe5b6002020160000190805190602001906100f292919061028b565b506000806001600b8110151561010457fe5b60020201600101819055506040805190810160405280600781526020017f4c696e652032200000000000000000000000000000000000000000000000000081525060006002600b8110151561015557fe5b60020201600001908051906020019061016f92919061028b565b506000806002600b8110151561018157fe5b60020201600101819055506040805190810160405280600781526020017f4c696e652033200000000000000000000000000000000000000000000000000081525060006003600b811015156101d257fe5b6002020160000190805190602001906101ec92919061028b565b506000806003600b811015156101fe57fe5b60020201600101819055506040805190810160405280600781526020017f4c696e652034200000000000000000000000000000000000000000000000000081525060006004600b8110151561024f57fe5b60020201600001908051906020019061026992919061028b565b506000806004600b8110151561027b57fe5b6002020160010181905550610330565b828054600181600116156101000203166002900490600052602060002090601f016020900481019282601f106102cc57805160ff19168380011785556102fa565b828001600101855582156102fa579182015b828111156102f95782518255916020019190600101906102de565b5b509050610307919061030b565b5090565b61032d91905b80821115610329576000816000905550600101610311565b5090565b90565b6106f18061033f6000396000f300608060405260043610610078576000357c0100000000000000000000000000000000000000000000000000000000900463ffffffff168063124eef9a1461007d578063465c64711461010d578063685940f8146101b3578063d4b9c3c2146101e0578063fb6872161461028d578063fd3615c9146102a4575b600080fd5b34801561008957600080fd5b506100926102cf565b6040518080602001828103825283818151815260200191508051906020019080838360005b838110156100d25780820151818401526020810190506100b7565b50505050905090810190601f1680156100ff5780820380516001836020036101000a031916815260200191505b509250505060405180910390f35b34801561011957600080fd5b506101386004803603810190808035906020019092919050505061036d565b6040518080602001828103825283818151815260200191508051906020019080838360005b8381101561017857808201518184015260208101905061015d565b50505050905090810190601f1680156101a55780820380516001836020036101000a031916815260200191505b509250505060405180910390f35b3480156101bf57600080fd5b506101de6004803603810190808035906020019092919050505061041f565b005b3480156101ec57600080fd5b5061020b60048036038101908080359060200190929190505050610447565b6040518080602001838152602001828103825284818151815260200191508051906020019080838360005b83811015610251578082015181840152602081019050610236565b50505050905090810190601f16801561027e5780820380516001836020036101000a031916815260200191505b50935050505060405180910390f35b34801561029957600080fd5b506102a2610508565b005b3480156102b057600080fd5b506102b9610613565b6040518082815260200191505060405180910390f35b607b8054600181600116156101000203166002900480601f0160208091040260200160405190810160405280929190818152602001828054600181600116156101000203166002900480156103655780601f1061033a57610100808354040283529160200191610365565b820191906000526020600020905b81548152906001019060200180831161034857829003601f168201915b505050505081565b60168160648110151561037c57fe5b016000915090508054600181600116156101000203166002900480601f0160208091040260200160405190810160405280929190818152602001828054600181600116156101000203166002900480156104175780601f106103ec57610100808354040283529160200191610417565b820191906000526020600020905b8154815290600101906020018083116103fa57829003601f168201915b505050505081565b6001600082600b8110151561043057fe5b600202016001016000828254019250508190555050565b600081600b8110151561045657fe5b60020201600091509050806000018054600181600116156101000203166002900480601f0160208091040260200160405190810160405280929190818152602001828054600181600116156101000203166002900480156104f85780601f106104cd576101008083540402835291602001916104f8565b820191906000526020600020905b8154815290600101906020018083116104db57829003601f168201915b5050505050908060010154905082565b60008060009150600090505b600581101561057d57600082600b8110151561052c57fe5b6002020160010154600082600b8110151561054357fe5b60020201600101541115610555578091505b60008082600b8110151561056557fe5b60020201600101819055508080600101915050610514565b600082600b8110151561058c57fe5b600202016000016016607a546064811015156105a457fe5b0190805460018160011615610100020316600290046105c4929190610619565b50607a60008154809291906001019190505550600082600b811015156105e657fe5b60020201600001607b908054600181600116156101000203166002900461060e929190610619565b505050565b607a5481565b828054600181600116156101000203166002900490600052602060002090601f016020900481019282601f10610652578054855561068f565b8280016001018555821561068f57600052602060002091601f016020900482015b8281111561068e578254825591600101919060010190610673565b5b50905061069c91906106a0565b5090565b6106c291905b808211156106be5760008160009055506001016106a6565b5090565b905600a165627a7a72305820e3d3b569c45e950f1f34956b4d54e70aa39523be057ede5efac19581595db34c0029",
  "source": "pragma solidity ^0.4.2;\n\ncontract Story {\n    \n\n \t\n     \n    struct storyLine\n    {\n        string line;\n        uint voteCount;\n    }\n\n    storyLine[11] public arrayOfLines; // keep track of status of lines in each round\n    string[100]public  finalStory;     // final lines in story\n    uint public lineCount = 0;         // final story line count\n    string public lineselected;\n\n    mapping( address => uint) votedInThisRound;\n\n \n\n    // Constructor\n    constructor() public\n    {\n        \n        arrayOfLines[0].line = \"Line 0 \"; arrayOfLines[0].voteCount = 0;\n        arrayOfLines[1].line = \"Line 1 \"; arrayOfLines[1].voteCount = 0; \n        arrayOfLines[2].line = \"Line 2 \"; arrayOfLines[2].voteCount = 0;\n        arrayOfLines[3].line = \"Line 3 \"; arrayOfLines[3].voteCount = 0;\n        arrayOfLines[4].line = \"Line 4 \"; arrayOfLines[4].voteCount = 0;\n    }\n\n    modifier notVoted()\n    {\n        require( votedInThisRound[msg.sender]<1 , \" Already proposed line \");_;\n    }\n\n\n    function casteVote(uint idx) public\n    {\n        //votedInThisRound[msg.sender] = 1;\n        arrayOfLines[idx].voteCount += 1;        \t\n        \n    }\n\n    function addStoryLine() // add line to story and reset count to zero\n    {\n\n        uint roundPropose  = 0;\n        for (uint i =0;i<5;i++)\n        {\n            if(arrayOfLines[i].voteCount > arrayOfLines[roundPropose].voteCount)\n            {\n                roundPropose = i;\n            }\n            arrayOfLines[i].voteCount = 0;\n        }\n        finalStory[lineCount] = arrayOfLines[roundPropose].line;\n        lineCount ++;\n        lineselected = arrayOfLines[roundPropose].line;\n    }\n\n\n}\n",
  "sourcePath": "/home/harshit/Documents/Dapp/StoryDapp/contracts/Story.sol",
  "compiler": {
    "name": "solc",
    "version": "0.4.24+commit.e67f0147.Emscripten.clang"
  },
  "schemaVersion": "2.0.1",
  "updatedAt": "2018-11-10T11:02:40.778Z"
}