{
  "contractName": "Story",
  "abi": [
    {
      "constant": true,
      "inputs": [],
      "name": "lineselected",
      "outputs": [
        {
          "name": "",
          "type": "string"
        }
      ],
      "payable": false,
      "stateMutability": "view",
      "type": "function"
    },
    {
      "constant": true,
      "inputs": [
        {
          "name": "",
          "type": "uint256"
        }
      ],
      "name": "finalStory",
      "outputs": [
        {
          "name": "",
          "type": "string"
        }
      ],
      "payable": false,
      "stateMutability": "view",
      "type": "function"
    },
    {
      "constant": true,
      "inputs": [],
      "name": "start",
      "outputs": [
        {
          "name": "",
          "type": "uint256"
        }
      ],
      "payable": false,
      "stateMutability": "view",
      "type": "function"
    },
    {
      "constant": true,
      "inputs": [
        {
          "name": "",
          "type": "uint256"
        }
      ],
      "name": "arrayOfLines",
      "outputs": [
        {
          "name": "line",
          "type": "string"
        },
        {
          "name": "voteCount",
          "type": "uint256"
        }
      ],
      "payable": false,
      "stateMutability": "view",
      "type": "function"
    },
    {
      "constant": true,
      "inputs": [],
      "name": "lineCount",
      "outputs": [
        {
          "name": "",
          "type": "uint256"
        }
      ],
      "payable": false,
      "stateMutability": "view",
      "type": "function"
    },
    {
      "inputs": [],
      "payable": false,
      "stateMutability": "nonpayable",
      "type": "constructor"
    },
    {
      "constant": false,
      "inputs": [
        {
          "name": "idx",
          "type": "uint256"
        }
      ],
      "name": "casteVote",
      "outputs": [],
      "payable": false,
      "stateMutability": "nonpayable",
      "type": "function"
    },
    {
      "constant": false,
      "inputs": [],
      "name": "addStoryLine",
      "outputs": [],
      "payable": false,
      "stateMutability": "nonpayable",
      "type": "function"
    }
  ],
  "bytecode": "0x60806040526000607a5534801561001557600080fd5b506040805190810160405280600781526020017f4c696e6520302000000000000000000000000000000000000000000000000000815250600080600b8110151561005b57fe5b600202016000019080519060200190610075929190610292565b506000806000600b8110151561008757fe5b60020201600101819055506040805190810160405280600781526020017f4c696e652031200000000000000000000000000000000000000000000000000081525060006001600b811015156100d857fe5b6002020160000190805190602001906100f2929190610292565b506000806001600b8110151561010457fe5b60020201600101819055506040805190810160405280600781526020017f4c696e652032200000000000000000000000000000000000000000000000000081525060006002600b8110151561015557fe5b60020201600001908051906020019061016f929190610292565b506000806002600b8110151561018157fe5b60020201600101819055506040805190810160405280600781526020017f4c696e652033200000000000000000000000000000000000000000000000000081525060006003600b811015156101d257fe5b6002020160000190805190602001906101ec929190610292565b506000806003600b811015156101fe57fe5b60020201600101819055506040805190810160405280600781526020017f4c696e652034200000000000000000000000000000000000000000000000000081525060006004600b8110151561024f57fe5b600202016000019080519060200190610269929190610292565b506000806004600b8110151561027b57fe5b600202016001018190555042607c81905550610337565b828054600181600116156101000203166002900490600052602060002090601f016020900481019282601f106102d357805160ff1916838001178555610301565b82800160010185558215610301579182015b828111156103005782518255916020019190600101906102e5565b5b50905061030e9190610312565b5090565b61033491905b80821115610330576000816000905550600101610318565b5090565b90565b610760806103466000396000f300608060405260043610610083576000357c0100000000000000000000000000000000000000000000000000000000900463ffffffff168063124eef9a14610088578063465c647114610118578063685940f8146101be578063be9a6555146101eb578063d4b9c3c214610216578063fb687216146102c3578063fd3615c9146102da575b600080fd5b34801561009457600080fd5b5061009d610305565b6040518080602001828103825283818151815260200191508051906020019080838360005b838110156100dd5780820151818401526020810190506100c2565b50505050905090810190601f16801561010a5780820380516001836020036101000a031916815260200191505b509250505060405180910390f35b34801561012457600080fd5b50610143600480360381019080803590602001909291905050506103a3565b6040518080602001828103825283818151815260200191508051906020019080838360005b83811015610183578082015181840152602081019050610168565b50505050905090810190601f1680156101b05780820380516001836020036101000a031916815260200191505b509250505060405180910390f35b3480156101ca57600080fd5b506101e960048036038101908080359060200190929190505050610455565b005b3480156101f757600080fd5b5061020061047d565b6040518082815260200191505060405180910390f35b34801561022257600080fd5b5061024160048036038101908080359060200190929190505050610483565b6040518080602001838152602001828103825284818151815260200191508051906020019080838360005b8381101561028757808201518184015260208101905061026c565b50505050905090810190601f1680156102b45780820380516001836020036101000a031916815260200191505b50935050505060405180910390f35b3480156102cf57600080fd5b506102d8610544565b005b3480156102e657600080fd5b506102ef610682565b6040518082815260200191505060405180910390f35b607b8054600181600116156101000203166002900480601f01602080910402602001604051908101604052809291908181526020018280546001816001161561010002031660029004801561039b5780601f106103705761010080835404028352916020019161039b565b820191906000526020600020905b81548152906001019060200180831161037e57829003601f168201915b505050505081565b6016816064811015156103b257fe5b016000915090508054600181600116156101000203166002900480601f01602080910402602001604051908101604052809291908181526020018280546001816001161561010002031660029004801561044d5780601f106104225761010080835404028352916020019161044d565b820191906000526020600020905b81548152906001019060200180831161043057829003601f168201915b505050505081565b6001600082600b8110151561046657fe5b600202016001016000828254019250508190555050565b607c5481565b600081600b8110151561049257fe5b60020201600091509050806000018054600181600116156101000203166002900480601f0160208091040260200160405190810160405280929190818152602001828054600181600116156101000203166002900480156105345780601f1061050957610100808354040283529160200191610534565b820191906000526020600020905b81548152906001019060200180831161051757829003601f168201915b5050505050908060010154905082565b600080600080925060009150600090505b60058110156105e157600083600b8110151561056d57fe5b6002020160010154600082600b8110151561058457fe5b60020201600101541115610596578092505b60008084600b811015156105a657fe5b600202016001015411156105b957600191505b60008082600b811015156105c957fe5b60020201600101819055508080600101915050610555565b600182141561067d57600083600b811015156105f957fe5b600202016000016016607a5460648110151561061157fe5b019080546001816001161561010002031660029004610631929190610688565b50607a60008154809291906001019190505550600083600b8110151561065357fe5b60020201600001607b908054600181600116156101000203166002900461067b929190610688565b505b505050565b607a5481565b828054600181600116156101000203166002900490600052602060002090601f016020900481019282601f106106c157805485556106fe565b828001600101855582156106fe57600052602060002091601f016020900482015b828111156106fd5782548255916001019190600101906106e2565b5b50905061070b919061070f565b5090565b61073191905b8082111561072d576000816000905550600101610715565b5090565b905600a165627a7a7230582027129e3dbfd82a6b27f25984cea4e3eb7210f14c670a4f284c4e86b52b5fb1960029",
  "source": "pragma solidity ^0.4.2;\n\ncontract Story {\n    \n\n \t\n     \n    struct storyLine\n    {\n        string line;\n        uint voteCount;\n    }\n\n    storyLine[11] public arrayOfLines; // keep track of status of lines in each round\n    string[100]public  finalStory;     // final lines in story\n    uint public lineCount = 0;         // final story line count\n    string public lineselected;\n    uint public start; \n    mapping( address => uint) votedInThisRound;\n\n \n\n    // Constructor\n    constructor() public\n    {\n        \n        arrayOfLines[0].line = \"Line 0 \"; arrayOfLines[0].voteCount = 0;\n        arrayOfLines[1].line = \"Line 1 \"; arrayOfLines[1].voteCount = 0; \n        arrayOfLines[2].line = \"Line 2 \"; arrayOfLines[2].voteCount = 0;\n        arrayOfLines[3].line = \"Line 3 \"; arrayOfLines[3].voteCount = 0;\n        arrayOfLines[4].line = \"Line 4 \"; arrayOfLines[4].voteCount = 0;\n        start = now ;\n    }\n\n    modifier notVoted()\n    {\n        require( votedInThisRound[msg.sender]<1 , \" Already proposed line \");_;\n    }\n\n\n    function casteVote(uint idx) public\n    {\n        //votedInThisRound[msg.sender] = 1;\n        arrayOfLines[idx].voteCount += 1;        \t\n        \n    }\n\n    function addStoryLine() // add line to story and reset count to zero\n    {\n\n        uint roundPropose  = 0;\n        uint flag = 0;\n        for (uint i =0;i<5;i++)\n        {\n            if(arrayOfLines[i].voteCount > arrayOfLines[roundPropose].voteCount)\n            {\n                roundPropose = i;\n            }\n            if(arrayOfLines[roundPropose].voteCount > 0){\n                flag = 1;\n            }\n            arrayOfLines[i].voteCount = 0;\n        }\n        if(flag==1){\n            finalStory[lineCount] = arrayOfLines[roundPropose].line;\n            lineCount ++;\n            lineselected = arrayOfLines[roundPropose].line;   \n        }\n    }\n\n\n}\n",
  "sourcePath": "/home/harshit/Documents/Dapp/StoryDapp/contracts/Story.sol",
  "compiler": {
    "name": "solc",
    "version": "0.4.24+commit.e67f0147.Emscripten.clang"
  },
  "schemaVersion": "2.0.1",
  "updatedAt": "2018-11-10T16:56:48.066Z"
}